:1000000018308A0000280000FF00030E8301A100C1
:100010000A08A0008A010408A2007708A300780853
:10002000A4007908A5007A08A6007B08A70083131E
:1000300083128C308400801E1F288C1A32282208DC
:1000400084002308F7002408F8002508F900260892
:10005000FA002708FB0020088A00210E8300FF0E0B
:100060007F0E09008A110A12832C0A108A100A11C5
:100070008207203444344B345434423420345134D5
:1000800055344134203453344D3453342034003407
:100090000A108A100A118207443461346E346734BE
:1000A00020346334613475342034683469346E34F8
:1000B0006834203400340A108A100A11820743344D
:1000C000613475342034683469346E3468342034D3
:1000D00078346F346E346734203400340A108A1058
:1000E0000A11820720344E3468346934653474341C
:1000F000203464346F342034703468346F346E3498
:100100006734203400340A108A100A1182074334FD
:100110006F342034743469346E3420346E3468346F
:1001200061346E3420346D346F34693420340034DB
:100130000A108A100A118207443461346E3467341D
:1001400020347834753420346C34793400340A1017
:100150008A100A118207613474342B3463346D348D
:10016000673472343D34313400340A108A100A1175
:100170008207613474342B3463346D3467346434EF
:100180003D34313400340A108A100A1182072034B9
:100190004E346834693465347434203464346F34D4
:1001A0002034633461346F342034213420340034FB
:1001B0000A108A100A118207443461346E3467349D
:1001C000203467346F3469342034643469346534DE
:1001D0006E34203400340A108A100A118207413428
:1001E00054344434303431343634373434343534A0
:1001F000373437343134363433343B3400340A1432
:100200008A100A11820741345434483400340A14E5
:100210008A100A118207413454342B3443344D344C
:10022000473453343D342234303431343634373467
:10023000343435343734373431343634333422348B
:100240000D340A3400340A148A100A1182074E341D
:100250006834693465347434203464346F34203441
:100260006C347534633420346E3461347934203422
:100270006C3461343A340D340A3420342534753406
:1002800000340A148A100A11820764346F3420344F
:10029000433400340A148A100A118207203443348C
:1002A0006F3420346E34673475346F3469342034DD
:1002B000763461346F3420342034203421342034B7
:1002C00000340A148A100A118207443461346E34EF
:1002D0006734203467346F346934203464346934CB
:1002E00065346E342034203400340A148A100A1124
:1002F000820743346F3420346E34673475346F347E
:100300006934203464346F34743420346E34683487
:100310006134703400340A148A100A11820761347F
:1003200074340D340A3400340A148A100A11820716
:1003300061347434653430340D340A3400340A14B2
:100340008A100A118207613474342B3463346D349B
:10035000673466343D3431340D340A3400340A14C1
:100360008A100A118207613474342B3463346D347B
:10037000673464343D3431340D340A3400340A14A3
:100380008A100A1182074F346E34313400340A1453
:100390008A100A118207443465346E3420343134B3
:1003A00020346434613420346D346F3420340034AC
:1003B0000A148A100A1182074734753469342034CC
:1003C00073346D347334203470342E3468346F34A5
:1003D000693400340A148A100A11820764346534BF
:1003E0006E342034313420346434613420346D343C
:1003F0006F34003400000A108A140A11023E0318F8
:100400008A0A82004F3466346634313400340A106C
:100410008A140A118207443465346E34203431342E
:1004200020346434613420347434613474342034BE
:1004300000340A108A140A118207643465346E3459
:1004400020343134203464346134203474346134E1
:10045000743400340A108A140A1182074F346E343F
:10046000323400340A108A140A1182074434653485
:100470006E342034323420346434613420346D34AA
:100480006F34203400340A108A140A11820764344D
:1004900065346E3420343234203464346134203492
:1004A0006D346F3400340A108A140A1182074F34F5
:1004B00066346634323400340A108A140A11820712
:1004C000443465346E34203432342034643461343E
:1004D0002034743461347434203400340A108A14A3
:1004E0000A118207643465346E3420343234203487
:1004F00064346134203474346134743400340A1048
:100500008A140A1182074F346E34333400340A10CF
:100510008A140A118207443465346E34203433342B
:1005200020346434613420346D346F34203400342A
:100530000A108A140A118207643465346E34203438
:10054000333420346434613420346D346F340034F7
:100550000A108A140A1182074F3466346634333421
:1005600000340A108A140A118207443465346E3448
:1005700020343334203464346134203474346134AE
:100580007434203400340A108A140A118207643447
:1005900065346E3420343334203464346134203490
:1005A00074346134743400340A108A140A118207D6
:1005B0004F346E34343400340A108A140A1182071E
:1005C000443465346E34203434342034643461343B
:1005D00020346D346F34203400340A108A140A1128
:1005E0008207643465346E34203434342034643407
:1005F000613420346D346F3400340A148A140A11C3
:1006000082074F3466346634343400340A148A1452
:100610000A118207443465346E3420343434203473
:1006200064346134203474346134743420340034DC
:100630000A148A140A118207643465346E34203433
:100640003434203464346134203474346134743488
:1006500000340A148A140A1182074F346E3461344C
:100660006C346C3400340A148A140A11820754342E
:100670006134743420346334613420346434653438
:100680006E3420346D346F3400340A148A140A1125
:100690008207743461347434203463346134203418
:1006A000643465346E3420346434613420346D3401
:1006B0006F3400340A148A140A1182074F346634E6
:1006C000663461346C346C3400340A148A140A11B0
:1006D00082075434613474342034633461342034F8
:1006E000643465346E3420347434613474342034AA
:1006F00000340A148A140A11820774346134743481
:100700002034633461342034643465346E342034EE
:1007100064346134203474346134743400340A1421
:100720008A140A1182075334743461347434753472
:10073000733400340A148A140A1182074434613471
:100740006E34673420346B34693465346D3420344E
:1007500074347234613400340A148A140A11820722
:10076000643465346E34203431342034643461347C
:100770006E34673420346D346F340D340A340034F1
:100780000A148A140A118207643465346E342034E2
:1007900031342034643461346E346734203474343A
:1007A000613474340D340A3400340A148A140A1182
:1007B0008207643465346E34203432342034643437
:1007C00061346E34673420346D346F340D340A3440
:1007D00000340A148A140A118207643465346E34B2
:1007E000203432342034643461346E34673420343D
:1007F0007434613474340D340A3400340A108A10AD
:100800000A158207643465346E342034333420345E
:10081000643461346E34673420346D346F340D3495
:100820000A3400340A108A100A15820764346534C9
:100830006E34203433342034643461346E3467349D
:1008400020347434613474340D340A3400340A10A2
:100850008A100A158207643465346E3420343434C7
:100860002034643461346E34673420346D346F3432
:100870000D340A3400340A108A100A1582076434D1
:1008800065346E34203434342034643461346E344E
:10089000673420347434613474340D340A340034D1
:1008A0000A108A100A1582076E3468346934653478
:1008B000743464346F3400340A108A100A158207C5
:1008C0004B34693465346D3420347434723461349B
:1008D00020346E3468346934653474342034003420
:1008E0000A108A100A15820764346F342034763473
:1008F000653420346434743420342034203420347B
:1009000020342034003410305307840083178C1EA9
:10091000872C1A08800010305307840083170008C2
:100920004D3C031D9A2CD80A5808023C031D9A2CF2
:100930000130D700D30A8C128A110A121F28913075
:100940008400831700080319B32C0330F800F70163
:10095000F70BA82CF80BA72CE330F700F70BAE2C05
:100960000000800BA52C0034831603171418BE2C2E
:10097000831203130710C12C83160317831203136A
:1009800007142A102A088316870003179418CE2C00
:10099000831203138710D12C8316031783120313BA
:1009A0008714AA102A088316870003171419DE2C4F
:1009B000831203130711E12C831603178312031309
:1009C00007152A112A088316870003179419EE2C9D
:1009D000831203138711F12C831603178312031359
:1009E0008715AA112A0883168700831200349430D1
:1009F00084008317000803190B2D0330F800F7015A
:100A0000F70B002DF80BFF2CE330F700F70B062D4A
:100A10000000800BFD2C00342A122A088316870060
:100A2000831207160230F700F70B142D172D2A1228
:100A30002A088316870083120712033083160317D0
:100A4000940083120313F724003483160317930EC4
:100A50001308940083120313B4240C258316031780
:100A6000930E1308940083120313B4240C2500344E
:100A700083160317940183120313B424C83083161A
:100A80000317940083120313F724AA122A0883166B
:100A90008700831287120330831603179400831292
:100AA0000313B4240C250C250C25023083160317E0
:100AB000940083120313B4240C252C3083160317DF
:100AC00093008312031325250C308316031793001C
:100AD0008312031325250630831603179300831210
:100AE0000313252501308316031793008312031384
:100AF00025258A150A166828AA122A08831687004F
:100B000083128716831603171208930083120313A8
:100B10002525AA122A08831687008312871200341B
:100B2000D701D801D301DB01D901D40154085A3CC3
:100B3000031CA12D10305407840083178001D40AB0
:100B4000962DD4015408143C031CAD2D2B305407B2
:100B5000840083138001D40AA22D00340830831648
:100B600003179000FA309100831203139F24831619
:100B70000317900BB22D90011008831203138B21E1
:100B800083160317900AF700831203130C1EC62D59
:100B900099000430831603171002031DBC2D023088
:100BA0009000FA309100831203139F2483160317D9
:100BB000900BD12D90011008831203138B21831603
:100BC0000317900AF700831203130C1EE52D9900FA
:100BD0000430831603171002031DDB2D0230900032
:100BE000FA309100831203139F2483160317900B8E
:100BF000F02D90011008831203138B218316031725
:100C0000900AF700831203130C1E042E990004307F
:100C1000831603171002031DFA2D02309000FA30DC
:100C20009100831203139F2483160317900B0F2E3A
:100C300090011008831203138B2183160317900A67
:100C4000F700831203130C1E232E99000430831621
:100C500003171002031D192E02309000FA30910084
:100C6000831203139F2483160317900B2E2E9001DB
:100C7000100883120313942183160317900AF700B8
:100C8000831203130C1E422E99000630831603179D
:100C90001002031D382E02309000FA3091008312AA
:100CA00003139F2483160317900B4D2E90011008F9
:100CB000831203139F2183160317900AF7008312F0
:100CC00003130C1E612E99000B30831603171002BC
:100CD000031D572E02309000FA3091008312031347
:100CE0009F2483160317900B6C2E9001100883121B
:100CF0000313AF2183160317900AF700831203131F
:100D00000C1E802E99000B30831603171002031D52
:100D1000762E02309000FA309100831203139F2444
:100D200083160317900B8B2E83120313902502302A
:100D3000831603179000FA309100831203139F2447
:100D400083160317900B9B2E033083120313880026
:100D50000430831603179000FA30910083120313B6
:100D60009F2483160317900BAC2E83120313880164
:100D70000430831603179000FA3091008312031396
:100D80009F2483160317900BBC2E031383128A151E
:100D90000A16C12883160317110813068039950017
:100DA000911FD72E90099109900A0319910A931F58
:100DB000DE2E92099309920A0319930AF801F901A8
:100DC000F701FA011308031DE82E12080319022F78
:100DD000103094000310900D910DF70DFA0D1308CB
:100DE0007A02031DF52E12087702031CFE2E12084C
:100DF000F702031CFA031308FA020314F80DF90DA5
:100E0000940BEA2E951F092FF809F909F80A03191E
:100E1000F90A031383128A150A161E298E30F70069
:100E2000831603171308F8001208F900FA01931F3C
:100E30001E2FF809F909F90A0319F80AF808031D21
:100E40002B2F7908F800F9010830F702F808031D84
:100E50002B2FF701342F0310F81B322FF90DF80D4B
:100E6000F7032B2F931FF813031383128A150A1607
:100E700035298316031712080319AB2F9A00160899
:100E80000319AB2F9A0703184C2F7F309A02031CCB
:100E9000AB2F0319AB2F502F81309A070318AB2FBC
:100EA0001A08F700F801F901FA0113089E009E17CD
:100EB00014089D0015089C0018309A009B011C1C0A
:100EC000792F1908FA07031C6B2FF90A031D6B2FE2
:100ED000F80A03199B171808F907031C722FF80A60
:100EE00003199B171708940094171408F8070318A0
:100EF0009B179B0DF80CF90CFA0C9E0C9D0C9C0C8E
:100F000003109A0B5E2F0130F7070318AB2FF81B65
:100F1000902F9E0DFA0DF90DF80DF7030319AB2F65
:100F20009E1FA12FFA0A031DA12FF90A031DA12F4D
:100F3000F80A031DA12FF80CF90CFA0CF70A031993
:100F4000AB2F13089B0017089B069B1FA92FF817B0
:100F5000AF2FF813AF2FF701F801F901FA010313CE
:100F600083128A150A164C298E30F7008316031750
:100F70001608F7021708F9001808F800F917F7081B
:100F80000319CD2F0310F908031DC92FF808031901
:100F9000CD2FF90CF80CF70BC22F971FD42FF8099F
:100FA000F909F80A0319F90A031383128A150A16B4
:100FB0007A29831603171408F80113020318E32F84
:100FC0001308F700EF2FF70108309500930DF70D88
:100FD000140877020318F700F80D950BE62F83121B
:040FE00003130034C3
:101000008030831C0828831603179B068312031362
:1010100083160317A001A10117089F001B089F0654
:1010200016080319F7289E00F7001A08031900296B
:101030009E0203199C28031C5A281B08A400A4170D
:101040001C08A3001D08A200A1010310A40CA30CFE
:10105000A20CA10C9E0B24289F1F312820141429B8
:1010600020101E1020169930840083172929201281
:101070009F1B44281E1C4F28A40CA30CA20CA10CDF
:10108000F70A03190F294F28A41B52280310A10D9A
:10109000A20DA30DA40DF70303190F29442820174F
:1010A000BC28201317089F009F1F5828A417082941
:1010B000A41308291A089E00F70016089E021708B4
:1010C000A400A4171808A3001908A200A101031086
:1010D000A40CA30CA20CA10C9E0B66289F1F7328C6
:1010E000A0141429A0101E10A0169D308400831790
:1010F0002929A0129F1B86281E1C9128A40CA30C32
:10110000A20CA10CF70A03190F299128A41B9428FB
:101110000310A10DA20DA30DA40DF70303190F29B0
:101120008628A017BC28A0131B089F009F1F9A2881
:10113000A4170829A41308291B08A400A4171C0835
:10114000A3001D08A2009F1FA928A413201514297D
:101150002011A1011E1099308400831729299F1B9B
:10116000D22817089F001E1CBC28A40CA30CA20C9C
:10117000A10CF70A03190F29A11FCD28A20A031DEC
:10118000CD28A30A031DCD28A40A031DCD28A40C35
:10119000A30CA20CF70A03190F29201B5128A01B2E
:1011A0009328F1288030A406A41FDA2814291B08EC
:1011B0009F00E72817089F00A408031DE728A3083D
:1011C000031DE728A208031DE728F7010829A41B2F
:1011D000F1280310A10DA20DA30DA40DF70BE72814
:1011E0000F299F1FF528A4170829A41308291A08F6
:1011F000F7001B08A4001C08A3001D08A200082972
:101200001608F7001708A4001808A3001908A20080
:101210002408F8002308F9002208FA004729F701FA
:10122000F801F901FA014729A101A209A309A409BA
:10123000A109A10A031D2229A20A031D2229A30A2A
:101240000319A40A20183028A01872282019A828E9
:10125000D7280008A207031C3329A30A031D33293A
:10126000A40A03191E1484030008A307031C3B29C6
:10127000A40A03191E1484030008801F803AA407DF
:1012800003181E14201A3728A01A7928AF28031330
:1012900083128A150A166A2978088316031710081C
:1012A0009300643094008A1183120313D9278A159E
:1012B000770883160317900078083030031D6729DC
:1012C000911C742991197429111A20306A299111DD
:1012D00011121114F807780892008A11831203136F
:1012E0007C258A1583160317100893000A30940092
:1012F0008A1183120313D9278A15770883160317D7
:10130000900078083030031D8B2991199529111C04
:101310009529111A2030F807780892008A11831253
:1013200003137C258A1583160317303090071008A5
:1013300092008A11831203137C258A1500348316C8
:10134000031711089300100892001308FA001208FE
:10135000840083137A18831780080319B329920A2B
:101360000319930AA52910081202F7001308FA00BE
:101370001108031C110FFA027708F8007A08F90027
:10138000831203130034DB01D601D401013083162C
:101390000317910010309000831203139F217908E6
:1013A000FA007808FA08031DD92954087802031CAA
:1013B000EB29103054078400831700080A3C031DF2
:1013C000E929D60A5608023C031DE92901305407D1
:1013D000D900D40AC6295908DA0001308316031748
:1013E000910010309000831203139F217908831617
:1013F000031791007808900008301002F7001108D8
:10140000FA000030031C0130FA027708F800FA08ED
:10141000031D122A7808831203135A020318362A6E
:10142000831603172B30831203135B07F800FA01AE
:101430000318FA0A78088316031790007A089100B7
:101440001030831203135A07840083170008831691
:1014500003179200100884008313111883171208D1
:10146000800083120313DB0ADA0AED298A150A16B3
:10147000DD2A831603171108FA001008840083136D
:101480007A188317000894001308FA0012088400E1
:1014900083137A18831700081402031D662A1108A3
:1014A000FA001008840083137A1883178008031D3C
:1014B0005C2A0030F8007E2A1108FA001008900A11
:1014C0000319910A920A0319930A3B2A1108FA0098
:1014D0001008840083131118831700089400130860
:1014E000FA001208840083131318831700081402EB
:1014F00003187C2AFF307D2A0130F8008312031381
:10150000003483160317900191013F308400831348
:101510001008840711088A11831203138F238A1578
:101520008000003803199B2A83160317910A900A3A
:10153000852A831203138316031791013F3090000D
:1015400093012B309200831203133922F808031DF4
:101550006D2C80308316031793008A1183120313B6
:1015600025258A1583160317900110088A11831206
:1015700003139A238A1583160317900AF700920023
:101580008A11831203137C258A150D3083160317E5
:101590001002031DB52AC03093008A118312031371
:1015A00025258A1583160317900110088A118312C6
:1015B0000313D8218A1583160317900AF7009200A7
:1015C0008A11831203137C258A150D3083160317A5
:1015D0001002031DD52A900110088A1183120313EB
:1015E00007218A1583160317900AF7008312031345
:1015F0000C1EF82A99001730831603171002031DDA
:10160000EC2A02309000FA3091008A118312031301
:101610009F248A1583160317900B032B8312031341
:10162000061C392B83160317900110088A118312A8
:101630000313AC238A1583160317900AF70083124D
:1016400003130C1E212B99000F3083160317100271
:10165000031D152B02309000FA3091008A1183127D
:1016600003139F248A1583160317900B2C2B8312C8
:1016700003130618622B83160317900110088A11B2
:1016800083120313C0238A1583160317900AF700E9
:10169000831203130C1E4A2B990010308316031774
:1016A0001002031D3E2B02309000FA3091008A1187
:1016B000831203139F248A1583160317900B552B4F
:1016C00083120313861C8B2B8316031790011008BB
:1016D0008A1183120313D5238A1583160317900AE0
:1016E000F700831203130C1E732B99000F3083161F
:1016F00003171002031D672B02309000FA3091008F
:101700008A11831203139F248A1583160317900BE3
:101710007E2B831203138618B42B831603179001B4
:1017200010088A1183120313E9238A1583160317FD
:10173000900AF700831203130C1E9C2B99001030A3
:10174000831603171002031D902B02309000FA300D
:1017500091008A11831203139F248A15831603179D
:10176000900BA72B83120313061DDD2B8316031783
:10177000900110088A1183120313FE238A15831621
:101780000317900AF700831203130C1EC52B990050
:101790000F30831603171002031DB92B023090007F
:1017A000FA3091008A11831203139F248A1583163D
:1017B0000317900BD02B831203130619062C8316E4
:1017C0000317900110088A118312031312248A153B
:1017D00083160317900AF700831203130C1EEE2BD7
:1017E00099001030831603171002031DE22B0230FC
:1017F0009000FA3091008A11831203139F248A15F6
:1018000083160317900BF92B83120313861D2F2CBD
:1018100083160317900110088A11831203132724DB
:101820008A1583160317900AF700831203130C1E00
:10183000172C99000F30831603171002031D0B2C71
:1018400002309000FA3091008A11831203139F2412
:101850008A1583160317900B222C83120313861903
:10186000582C83160317900110088A118312031352
:101870003B248A1583160317900AF700831203137B
:101880000C1E402C99001030831603171002031D04
:10189000342C02309000FA3091008A118312031325
:1018A0009F248A1583160317900B4B2C8312031366
:1018B0001A300C1E592C9900023083160317900021
:1018C000FA3091008A11831203139F248A1583161C
:1018D0000317900B602C831203138A150A16EE2A45
:1018E00078088316031711089300643094008A1156
:1018F00083120313D9278A157708831603179100DB
:1019000078083030031D8B2C921C972C9219972C41
:10191000121A20308E2C921112121214F807780825
:10192000831203130C1E922C9900831603171108BF
:1019300093000A3094008A1183120313D9278A1561
:10194000770883160317910078083030031DAE2CFA
:101950009219B72C121CB72C121A2030F8077808ED
:10196000831203130C1EB22C990083160317303018
:1019700091071108831203130C1EBC2C990000342C
:1019800083160317900191013F30840083131008E0
:10199000840711088A118312031350248A158000CA
:1019A00000380319DA2C83160317910A900AC42C05
:1019B000831203138316031791013F3090009301A4
:1019C0002B309200831203133922F808031D942D43
:1019D00080308316031793008A1183120313252581
:1019E0008A1583160317900110088A1183120313B6
:1019F0005C248A1583160317900AF70092008A1157
:101A0000831203137C258A150F30831603171002E7
:101A1000031DF42CC03093008A1183120313252573
:101A20008A1583160317900110088A118312031375
:101A300070248A1583160317900AF70092008A1102
:101A4000831203137C258A150E30831603171002A8
:101A5000031D142D900110088A11831203132321F2
:101A60008A1583160317900AF700831203130C1EBE
:101A7000372D99001730831603171002031D2B2DE5
:101A8000831203135C088316031791001B30920026
:101A90008312031370240230831603179000FA3068
:101AA00091008A11831203139F248A15831603174A
:101AB000900B4F2D900110088A11831203134121BE
:101AC0008A1583160317900AF700831203130C1E5E
:101AD000672D99000430831603171002031D5B2D38
:101AE00002309000FA3091008A11831203139F2470
:101AF0008A1583160317900B722D1A308312031365
:101B00000C1E802D99000230831603179000FA30C6
:101B100091008A11831203139F248A1583160317D9
:0E1B2000900B872D831203138A150A16F12AE3
:1020000083160317900191013F3084008313100859
:10201000840711080A1283120313BF210A168000D5
:10202000003803191A2883160317910A900A042806
:10203000831203138316031791013F30900093011D
:102040002B3092000A128A158312031339220A16C2
:102050008A11F808031DCC28061480308316031754
:1020600093000A128312031325250A1683160317F9
:10207000900110080A1283120313C7210A1683164F
:102080000317900AF70092000A12831203137C25AB
:102090000A160C30831603171002031D3928C030AE
:1020A00093000A128312031325250A1683160317B9
:1020B000900110080A1283120313D8210A168316FE
:1020C0000317900AF70092000A12831203137C256B
:1020D0000A160D30831603171002031D59289001AC
:1020E00010080A128312031307210A168316031716
:1020F000900AF700831203130C1E7C2899001730F6
:10210000831603171002031D702802309000FA3066
:1021100091000A12831203139F240A1683160317D1
:10212000900B8728900110080A1283120313EA21EA
:102130000A1683160317900AF700831203130C1E66
:102140009F2899000B30831603171002031D932854
:1021500002309000FA3091000A12831203139F2478
:102160000A1683160317900BAA281A30831203133A
:102170000C1EB82899000230831603179000FA301D
:1021800091000A12831203139F240A168316031761
:10219000900BBF288312031383160317900191013C
:1021A0003F30840083131008840711080A12831239
:1021B0000313FA210A16800000380319E628831653
:1021C0000317910A900AD02883120313831603176A
:1021D00091013F30900093012B3092000A128A1532
:1021E0008312031339220A168A11F808031D98294D
:1021F000061080308316031793000A12831203130C
:1022000025250A1683160317900110080A12831257
:10221000031307220A1683160317900AF700920089
:102220000A12831203137C250A160D308316031736
:102230001002031D0529C03093000A1283120313F4
:1022400025250A1683160317900110080A12831217
:102250000313D8210A1683160317900AF700920079
:102260000A12831203137C250A160D3083160317F6
:102270001002031D2529900110080A12831203136E
:1022800007210A1683160317900AF7008312031317
:102290000C1E482999001730831603171002031DDE
:1022A0003C2902309000FA3091000A128312031385
:1022B0009F240A1683160317900B532990011008C8
:1022C0000A128312031319220A1683160317900A9F
:1022D000F700831203130C1E6B2999000C30831630
:1022E00003171002031D5F2902309000FA3091009D
:1022F0000A12831203139F240A1683160317900BE6
:1023000076291A30831203130C1E84299900023097
:10231000831603179000FA3091000A1283120313F8
:102320009F240A1683160317900B8B29831203131D
:1023300083160317900191013F3084008313100826
:10234000840711080A12831203132A220A16800036
:1023500000380319B22983160317910A900A9C29A1
:10236000831203138316031791013F3090009301EA
:102370002B3092000A128A158312031339220A168F
:102380008A11F808031D642A861480308316031707
:1023900093000A128312031325250A1683160317C6
:1023A000900110080A128312031332220A168316B0
:1023B0000317900AF70092000A12831203137C2578
:1023C0000A160C30831603171002031DD129C030E2
:1023D00093000A128312031325250A168316031786
:1023E000900110080A1283120313D8210A168316CB
:1023F0000317900AF70092000A12831203137C2538
:102400000A160D30831603171002031DF1299001DF
:1024100010080A128312031307210A1683160317E2
:10242000900AF700831203130C1E142A9900173028
:10243000831603171002031D082A02309000FA3099
:1024400091000A12831203139F240A16831603179E
:10245000900B1F2A900110080A12831203134322C3
:102460000A1683160317900AF700831203130C1E33
:10247000372A99000B30831603171002031D2B2AED
:1024800002309000FA3091000A12831203139F2445
:102490000A1683160317900B422A1A30831203136D
:1024A0000C1E502A99000230831603179000FA3050
:1024B00091000A12831203139F240A16831603172E
:1024C000900B572A8312031383160317900191016F
:1024D0003F30840083131008840711080A12831206
:1024E000031353220A168000003803197E2A83162C
:1024F0000317910A900A682A83120313831603179D
:1025000091013F30900093012B3092000A128A15FE
:102510008312031339220A168A11F808031D302B7F
:10252000861080308316031793000A128312031358
:1025300025250A1683160317900110080A12831224
:1025400003135C220A1683160317900AF700920001
:102550000A12831203137C250A160D308316031703
:102560001002031D9D2AC03093000A128312031328
:1025700025250A1683160317900110080A128312E4
:102580000313D8210A1683160317900AF700920046
:102590000A12831203137C250A160D3083160317C3
:1025A0001002031DBD2A900110080A1283120313A2
:1025B00007210A1683160317900AF70083120313E4
:1025C0000C1EE02A99001730831603171002031D12
:1025D000D42A02309000FA3091000A1283120313B9
:1025E0009F240A1683160317900BEB2A90011008FC
:1025F0000A12831203136E220A1683160317900A17
:10260000F700831203130C1E032B99000C30831662
:1026100003171002031DF72A02309000FA309100D0
:102620000A12831203139F240A1683160317900BB2
:102630000E2B1A30831203130C1E1C2B9900023030
:10264000831603179000FA3091000A1283120313C5
:102650009F240A1683160317900B232B8312031350
:1026600083160317900191013F30840083131008F3
:10267000840711080A12831203137F220A168000AE
:10268000003803194A2B83160317910A900A342B3A
:10269000831203138316031791013F3090009301B7
:1026A0002B3092000A128A158312031339220A165C
:1026B0008A11F808031DFC2B0615803083160317BA
:1026C00093000A128312031325250A168316031793
:1026D000900110080A128312031387220A16831628
:1026E0000317900AF70092000A12831203137C2545
:1026F0000A160C30831603171002031D692BC03015
:1027000093000A128312031325250A168316031752
:10271000900110080A1283120313D8210A16831697
:102720000317900AF70092000A12831203137C2504
:102730000A160D30831603171002031D892B900112
:1027400010080A128312031307210A1683160317AF
:10275000900AF700831203130C1EAC2B990017305C
:10276000831603171002031DA02B02309000FA30CD
:1027700091000A12831203139F240A16831603176B
:10278000900BB72B900110080A12831203139822A2
:102790000A1683160317900AF700831203130C1E00
:1027A000CF2B99000B30831603171002031DC32B88
:1027B00002309000FA3091000A12831203139F2412
:1027C0000A1683160317900BDA2B1A3083120313A1
:1027D0000C1EE82B99000230831603179000FA3084
:1027E00091000A12831203139F240A1683160317FB
:1027F000900BEF2B831203138316031790019101A3
:102800003F30840083131008840711080A128312D2
:102810000313A8220A16800000380319162C831609
:102820000317910A900A002C8312031383160317CF
:1028300091013F30900093012B3092000A128A15CB
:102840008312031339220A168A11F808031DC82CB3
:10285000061180308316031793000A1283120313A4
:1028600025250A1683160317900110080A128312F1
:102870000313B1220A1683160317900AF700920079
:102880000A12831203137C250A160D3083160317D0
:102890001002031D352CC03093000A12831203135B
:1028A00025250A1683160317900110080A128312B1
:1028B0000313D8210A1683160317900AF700920013
:1028C0000A12831203137C250A160D308316031790
:1028D0001002031D552C900110080A1283120313D5
:1028E00007210A1683160317900AF70083120313B1
:1028F0000C1E782C99001730831603171002031D45
:102900006C2C02309000FA3091000A1283120313EB
:102910009F240A1683160317900B832C900110082E
:102920000A1283120313C3220A1683160317900A8E
:10293000F700831203130C1E9B2C99000C30831696
:1029400003171002031D8F2C02309000FA30910003
:102950000A12831203139F240A1683160317900B7F
:10296000A62C1A30831203130C1EB42C99000230CB
:10297000831603179000FA3091000A128312031392
:102980009F240A1683160317900BBB2C8312031384
:1029900083160317900191013F30840083131008C0
:1029A000840711080A1283120313D4220A16800026
:1029B00000380319E22C83160317910A900ACC2CD5
:1029C000831203138316031791013F309000930184
:1029D0002B3092000A128A158312031339220A1629
:1029E0008A11F808031D942D86158030831603176D
:1029F00093000A128312031325250A168316031760
:102A0000900110080A1283120313DC220A1683169F
:102A10000317900AF70092000A12831203137C2511
:102A20000A160C30831603171002031D012DC03047
:102A300093000A128312031325250A16831603171F
:102A4000900110080A1283120313D8210A16831664
:102A50000317900AF70092000A12831203137C25D1
:102A60000A160D30831603171002031D212D900145
:102A700010080A128312031307210A16831603177C
:102A8000900AF700831203130C1E442D990017308F
:102A9000831603171002031D382D02309000FA3000
:102AA00091000A12831203139F240A168316031738
:102AB000900B4F2D900110080A1283120313ED2280
:102AC0000A1683160317900AF700831203130C1ECD
:102AD000672D99000B30831603171002031D5B2D21
:102AE00002309000FA3091000A12831203139F24DF
:102AF0000A1683160317900B722D1A3083120313D4
:102B00000C1E802D99000230831603179000FA30B6
:102B100091000A12831203139F240A1683160317C7
:102B2000900B872D831203138316031790019101D5
:102B30003F30840083131008840711080A1283129F
:102B40000313FD220A16800000380319AE2D8316E8
:102B50000317910A900A982D831203138316031703
:102B600091013F30900093012B3092000A128A1598
:102B70008312031339220A168A11F808031D602EE6
:102B8000861180308316031793000A1283120313F1
:102B900025250A1683160317900110080A128312BE
:102BA000031306230A1683160317900AF7009200F0
:102BB0000A12831203137C250A160D30831603179D
:102BC0001002031DCD2DC03093000A12831203138F
:102BD00025250A1683160317900110080A1283127E
:102BE0000313D8210A1683160317900AF7009200E0
:102BF0000A12831203137C250A160D30831603175D
:102C00001002031DED2D900110080A128312031308
:102C100007210A1683160317900AF700831203137D
:102C20000C1E102E99001730831603171002031D77
:102C3000042E02309000FA3091000A12831203131E
:102C40009F240A1683160317900B1B2E9001100861
:102C50000A128312031318230A1683160317900A05
:102C6000F700831203130C1E332E99000C308316C9
:102C700003171002031D272E02309000FA30910036
:102C80000A12831203139F240A1683160317900B4C
:102C90003E2E1A30831203130C1E4C2E9900023064
:102CA000831603179000FA3091000A12831203135F
:102CB0009F240A1683160317900B532E83120313B7
:102CC00083160317900191013F308400831310088D
:102CD000840711080A128312031329230A1680009D
:102CE000003803197A2E83160317910A900A642E6E
:102CF000831203138316031791013F309000930151
:102D00002B3092000A128A158312031339220A16F5
:102D10008A11F808031D2D2FFF308600803083169E
:102D2000031793000A128312031325250A1683162C
:102D30000317900110080A128312031333230A1693
:102D400083160317900AF70092000A1283120313E6
:102D50007C250A160D30831603171002031D9A2EC8
:102D6000C03093000A128312031325250A16831616
:102D70000317900110080A1283120313D8210A16B0
:102D800083160317900AF70092000A1283120313A6
:102D90007C250A160D30831603171002031DBA2E68
:102DA000900110080A128312031307210A168316D2
:102DB0000317900AF700831203130C1EDD2E9900EF
:102DC0001730831603171002031DD12E0230900016
:102DD000FA3091000A12831203139F240A168316F5
:102DE0000317900BE82E900110080A1283120313A8
:102DF00045230A1683160317900AF700831203135C
:102E00000C1E002F99001030831603171002031DAB
:102E1000F42E02309000FA3091000A12831203134C
:102E20009F240A1683160317900B0B2F1A30831258
:102E300003130C1E192F99000230831603179000FC
:102E4000FA3091000A12831203139F240A16831684
:102E50000317900B202F831203138316031790017F
:102E600091013F30840083131008840711080A126F
:102E7000831203135A230A16800000380319472FC0
:102E800083160317910A900A312F831203138316B6
:102E9000031791013F30900093012B3092000A12EA
:102EA0008A158312031339220A168A11F808031DA2
:102EB000F92F860180308316031793000A128312BC
:102EC000031325250A1683160317900110080A120A
:102ED0008312031365230A1683160317900AF7005B
:102EE00092000A12831203137C250A160F308316F0
:102EF00003171002031D662FC03093000A128312BD
:102F0000031325250A1683160317900110080A12C9
:102F100083120313D8210A1683160317900AF700A9
:102F200092000A12831203137C250A160D308316B1
:102F300003171002031D862F900110080A12831236
:102F4000031307210A1683160317900AF70083124A
:102F500003130C1EA92F99001730831603171002B4
:102F6000031D9D2F02309000FA3091000A12831247
:102F700003139F240A1683160317900BB42F900196
:102F800010080A128312031379230A1683160317F3
:102F9000900AF700831203130C1ECC2F99001130F6
:102FA000831603171002031DC02F02309000FA3061
:102FB00091000A12831203139F240A168316031723
:102FC000900BD72F1A30831203130C1EE52F990094
:102FD0000230831603179000FA3091000A12831210
:102FE00003139F240A1683160317900BEC2F8312EA
:082FF00003138A150A16EB2AEF
:10300000840183131F3083054D3083169900A63049
:10301000980090308312980083161F149F141F1578
:103020009F1107309C008312A801A901FF30AA005C
:103030000130831685000030860088000914891449
:103040000915831286018801C0308B0483168C1603
:103050001F1383121F179F1783169F1783121F14A6
:1030600083161F109F141F159F150030F800831240
:103070001F08C73978049F00013088000430831688
:1030800003179000FA3091000A128A118312031379
:103090009F240A168A1583160317900B4228831261
:1030A000031388010430831603179000FA3091004F
:1030B0000A128A11831203139F240A168A15831693
:1030C0000317900B56280A128A1183120313382D06
:1030D0000A168A1583160317900110080A128A111E
:1030E0008312031335200A168A1583160317900AD4
:1030F000F70092000A128A11831203137C250A1624
:103100008A150E30831603171002031D6D28C03078
:1031100093000A128A118312031325250A168A15B1
:1031200083160317900110080A128A1183120313E1
:1031300048200A168A1583160317900AF700920092
:103140000A128A11831203137C250A168A150E307F
:10315000831603171002031D932804309000FA30E1
:1031600091000A128A11831203139F240A168A15EA
:1031700083160317900BAF280A128A1183120313C8
:10318000AE2D0A168A15C0308316031793000A1253
:103190008A118312031325250A168A15831603172D
:1031A000900110080A128A11831203135B200A1679
:1031B0008A1583160317900AF70092000A128A11E3
:1031C000831203137C250A168A150E308316031703
:1031D0001002031DD12808309000FA3091000A1225
:1031E0008A11831203139F240A168A158316031764
:1031F000900BED2883120313D701D8014630031733
:10320000EE00EF0103131F151F1904291E08FA0011
:1032100083161E0883120317EA007A08EB006B0876
:103220008316910083126A0883169000930102307E
:1032300092000A128A1183120313CA2E0A168A15E3
:1032400079080317ED007808EC006D0883169100EB
:1032500083126C08831690001108930010089200E6
:103260000A128A11831203130E2F0A168A157A087E
:10327000831603179500790894007808930077085F
:10328000920066309900980097007F3096000A12ED
:103290008A1183120313392F0A168A1577088316A9
:1032A0000317920078089300790894007A08950033
:1032B0008310150899001408980013089700120845
:1032C00096009D019C019B0184309A000A12831292
:1032D000031300280A167A08831603179900790841
:1032E000980078089700770896000A128A118312CE
:1032F0000313B42F0A168A157808DD0001308316EF
:10330000031793000A128A118312031325250A1644
:103310008A1580308316031793000A128A118312CC
:10332000031325250A168A15831603179001100822
:103330000A128A11831203136E200A168A15831645
:103340000317900AF70092000A128A1183120313DE
:103350007C250A168A151030831603171002031DE8
:103360009729C03093000A128A118312031325256E
:103370000A168A1503176C08831690001B309100FB
:103380000A12831203134C210A16C4308316031742
:1033900093000A128A118312031325250A168A152F
:1033A00043308316031792000A128A118312031303
:1033B0007C250A168A15C8308316031793000A1253
:1033C0008A118312031325250A168A155D088316B0
:1033D000031790001B3091000A12831203134C2133
:1033E0000A16CC308316031793000A128A1183122F
:1033F000031325250A168A154630831603179200F3
:103400000A128A11831203137C250A168A150230C8
:10341000831603179000FA3091000A128A11831262
:1034200003139F240A168A1583160317900B0B2A81
:1034300083120313570B992B013083160317930044
:103440000A128A118312031325250A168A15803061
:103450008316031793000A128A118312031325257A
:103460000A168A1583160317900110080A128A118A
:103470008312031383200A168A1583160317900AF2
:10348000F70092000A128A11831203137C250A1690
:103490008A151030831603171002031D352AC03019
:1034A00093000A128A118312031325250A168A151E
:1034B00083160317900110080A128A11831203134E
:1034C00098200A168A1583160317900AF7009200AF
:1034D0000A128A11831203137C250A168A150A30F0
:1034E000831603171002031D5B2A0A128A11831226
:1034F000031390250A168A158316031790011008E6
:103500000A128A1183120313A7200A168A1500389B
:103510000319972A83160317900A831203130C1EAC
:103520008F2A9900831603177F2A831203130D3005
:103530000C1E982A99000A300C1E9C2A9900023011
:10354000831603179000FA3091000A128A11831231
:1035500003139F240A168A1583160317900BA32AB8
:103560000F30831203138800023083160317900074
:10357000FA3091000A128A11831203139F240A164B
:103580008A1583160317900BB82A83120313880138
:103590000230831603179000FA3091000A128A1144
:1035A000831203139F240A168A1583160317900BA0
:1035B000CC2A0A1283120313C3290A160130831678
:1035C000031793000A128A118312031325250A1682
:1035D0008A158A1100288A150A12812A0A160A12E7
:1035E000C02C0A16C8308316031791000A128A11DC
:1035F000831203139F240A168A151F308800023095
:10360000831603179000FA3091000A128A11831270
:1036100003139F240A168A1583160317900B032B96
:103620008312031388010230831603179000FA30C7
:1036300091000A128A11831203139F240A168A1515
:1036400083160317900B172B900110080A128A118A
:1036500083120313B5200A168A15003803193D2B6F
:1036600083160317900A831203130C1E352B99003F
:1036700083160317252B831203130D300C1E3E2BCC
:1036800099000A300C1E422B990002308316031752
:103690009000FA3091000A128A11831203139F24BA
:1036A0000A168A1583160317900B492B0A128A11E2
:1036B0008312031390250A168A1502308316031706
:1036C0009000FA3091000A128A11831203139F248A
:1036D0000A168A1583160317900B612B3F3083124D
:1036E000031388000230831603179000FA3091000C
:1036F0000A128A11831203139F240A168A1583164D
:103700000317900B762B8312031388010230831664
:1037100003179000FA3091000A128A1183120313E2
:103720009F240A168A1583160317900B8A2B83127F
:1037300003130317EF1F9F2BED1FAB2BA12BED1BCB
:10374000FE2C6F086D02031CFE2C031DAB2B6E08B4
:103750006C02031CFE2C0130831693000A128A119E
:103760008312031325250A168A1580308316031742
:1037700093000A128A118312031325250A168A154B
:1037800083160317900110080A128A11831203137B
:10379000C3200A168A1583160317900AF7009200B1
:1037A0000A128A11831203137C250A168A15103017
:1037B000831603171002031DC32BC03093000A1297
:1037C0008A118312031325250A168A1583160317F7
:1037D000900110080A128A1183120313D8200A16C6
:1037E0008A1583160317900AF70092000A128A11AD
:1037F000831203137C250A168A150E3083160317CD
:103800001002031DE92B900110080A128A1183127D
:103810000313EB200A168A1583160317900AF70084
:10382000831203130C1E122C99000F3083160317FA
:103830001002031D042C0D30831203130C1E1E2CCA
:1038400099005030831603179000FA3091000A1245
:103850008A11831203139F240A168A1583160317ED
:10386000900B252C900110080A128A118312031361
:10387000FF200A168A15003803194B2C83160317EC
:10388000900A831203130C1E432C9900831603170E
:10389000332C831203130D300C1E4C2C99000A306C
:1038A0000C1E502C99000430831603179000FA3038
:1038B00091000A128A11831203139F240A168A1593
:1038C00083160317900B572C900110080A128A11C7
:1038D0008312031307210A168A1583160317900A09
:1038E000F700831203130C1E732C990017308316F4
:1038F00003171002031D652C02309000FA3091006E
:103900000A128A11831203139F240A168A1583163A
:103910000317900B7E2C900110080A128A11831253
:10392000031323210A168A1583160317900AF7003A
:10393000831203130C1E9A2C990017308316031759
:103940001002031D8C2C83126C08831691001B300F
:1039500092000A128312031370240A16023083168F
:1039600003179000FA3091000A128A118312031390
:103970009F240A168A1583160317900BB22C900108
:1039800010080A128A118312031341210A168A159C
:1039900083160317900AF700831203130C1ECE2C14
:1039A00099000430831603171002031DC02C023047
:1039B0009000FA3091000A128A11831203139F2497
:1039C0000A168A1583160317900BD92C1A30831206
:1039D00003130C1EE92C9900023083160317900084
:1039E000FA3091000A128A11831203139F240A16D7
:1039F0008A1583160317900BF02C831203130918F2
:103A0000382E01308316031793000A128A1183128D
:103A1000031325250A168A15803083160317930091
:103A20000A128A118312031325250A168A150630F5
:103A30008316031793000A128A1183120313252594
:103A40000A168A1583160317900110080A128A11A4
:103A5000831203134A210A168A1583160317900A44
:103A6000F70092000A128A11831203137C250A16AA
:103A70008A151230831603171002031D252DC0303E
:103A800093000A128A118312031325250A168A1538
:103A900006308316031793000A128A118312031348
:103AA00025250A168A1583160317900110080A1295
:103AB0008A118312031361210A168A1583160317CC
:103AC000900AF70092000A128A11831203137C25D0
:103AD0000A168A150F30831603171002031D562D80
:103AE000900110080A128A1183120313EB200A16A0
:103AF0008A1583160317900AF700831203130C1E0E
:103B00007F2D99000F30831603171002031D712DAE
:103B10000D30831203130C1E8B2D99005030831629
:103B200003179000FA3091000A128A1183120313CE
:103B30009F240A168A1583160317900B922D900165
:103B400010080A128A1183120313FF200A168A151D
:103B500000380319B82D83160317900A8312031334
:103B60000C1EB02D990083160317A02D831203138A
:103B70000D300C1EB92D99000A300C1EBD2D990078
:103B80000430831603179000FA3091000A128A114C
:103B9000831203139F240A168A1583160317900BAA
:103BA000C42D900110080A128A11831203130721F1
:103BB0000A168A1583160317900AF7008312031357
:103BC0000C1EE02D99001730831603171002031DF9
:103BD000D22D02309000FA3091000A128A1183121D
:103BE00003139F240A168A1583160317900BEB2DD7
:103BF000900110080A128A118312031375210A1604
:103C00008A1583160317900AF700831203130C1EFC
:103C1000072E99001130831603171002031DF92D8A
:103C200002309000FA3091000A128A1183120313B5
:103C30009F240A168A1583160317900B122E1A302A
:103C4000831203130C1E222E9900023083160317D1
:103C50009000FA3091000A128A11831203139F24F4
:103C60000A168A1583160317900B292E8312031345
:043C7000FE286300C7
:02400E003A3F37
:00000001FF
;PIC16F877A
